{
  "contractName": "Lottery",
  "abi": [
    {
      "inputs": [],
      "stateMutability": "nonpayable",
      "type": "constructor"
    },
    {
      "anonymous": false,
      "inputs": [
        {
          "indexed": false,
          "internalType": "string",
          "name": "message",
          "type": "string"
        }
      ],
      "name": "drawException",
      "type": "event"
    },
    {
      "anonymous": false,
      "inputs": [
        {
          "indexed": true,
          "internalType": "uint256",
          "name": "counter",
          "type": "uint256"
        },
        {
          "indexed": false,
          "internalType": "address",
          "name": "winner",
          "type": "address"
        },
        {
          "indexed": false,
          "internalType": "string",
          "name": "message",
          "type": "string"
        }
      ],
      "name": "winner",
      "type": "event"
    },
    {
      "inputs": [],
      "name": "owner",
      "outputs": [
        {
          "internalType": "address",
          "name": "",
          "type": "address"
        }
      ],
      "stateMutability": "view",
      "type": "function",
      "constant": true
    },
    {
      "inputs": [
        {
          "internalType": "uint256",
          "name": "tickets",
          "type": "uint256"
        },
        {
          "internalType": "uint256",
          "name": "price",
          "type": "uint256"
        },
        {
          "internalType": "uint256",
          "name": "uptoDate",
          "type": "uint256"
        }
      ],
      "name": "startLottery",
      "outputs": [],
      "stateMutability": "payable",
      "type": "function",
      "payable": true
    },
    {
      "inputs": [
        {
          "internalType": "uint256",
          "name": "ticket_price",
          "type": "uint256"
        }
      ],
      "name": "buyTicket",
      "outputs": [],
      "stateMutability": "payable",
      "type": "function",
      "payable": true
    },
    {
      "inputs": [],
      "name": "drawWinner",
      "outputs": [],
      "stateMutability": "payable",
      "type": "function",
      "payable": true
    },
    {
      "inputs": [],
      "name": "status",
      "outputs": [
        {
          "internalType": "uint256",
          "name": "",
          "type": "uint256"
        },
        {
          "internalType": "uint256",
          "name": "",
          "type": "uint256"
        },
        {
          "internalType": "uint256",
          "name": "",
          "type": "uint256"
        },
        {
          "internalType": "uint256",
          "name": "",
          "type": "uint256"
        },
        {
          "internalType": "uint256",
          "name": "",
          "type": "uint256"
        }
      ],
      "stateMutability": "view",
      "type": "function",
      "constant": true
    }
  ],
  "bytecode": "0x60806040526000805560006001556000600255600060035560006004556001600560006101000a81548160ff02191690831515021790555034801561004357600080fd5b5033600560016101000a81548173ffffffffffffffffffffffffffffffffffffffff021916908373ffffffffffffffffffffffffffffffffffffffff1602179055506108a6806100946000396000f3fe60806040526004361061004a5760003560e01c8063200d2ed21461004f5780632cff0b6d1461009657806367dd74ca146100d85780638da5cb5b14610106578063b2185bb114610147575b600080fd5b34801561005b57600080fd5b50610064610151565b604051808681526020018581526020018481526020018381526020018281526020019550505050505060405180910390f35b6100d6600480360360608110156100ac57600080fd5b81019080803590602001909291908035906020019092919080359060200190929190505050610178565b005b610104600480360360208110156100ee57600080fd5b81019080803590602001909291905050506102e6565b005b34801561011257600080fd5b5061011b61042c565b604051808273ffffffffffffffffffffffffffffffffffffffff16815260200191505060405180910390f35b61014f610452565b005b60008060008060008054600454600154600254600654945094509450945094509091929394565b600560019054906101000a900473ffffffffffffffffffffffffffffffffffffffff1673ffffffffffffffffffffffffffffffffffffffff163373ffffffffffffffffffffffffffffffffffffffff16146101d257600080fd5b60006004541480156101e5575060008054145b61023a576040517f08c379a00000000000000000000000000000000000000000000000000000000081526004018080602001828103825260368152602001806107f56036913960400191505060405180910390fd5b60008211801561024a5750600183115b61029f576040517f08c379a000000000000000000000000000000000000000000000000000000000815260040180806020018281038252604681526020018061082b6046913960600191505060405180910390fd5b82600081905550816001819055506000546004819055506002546002819055506000600560006101000a81548160ff02191690831515021790555080600681905550505050565b6000600454141580156102f857508034145b8015610305575042600654115b61035a576040517f08c379a000000000000000000000000000000000000000000000000000000000815260040180806020018281038252605b815260200180610764605b913960600191505060405180910390fd5b6001600454036004819055503360076000600360008154600101919050819055815260200190815260200160002060006101000a81548173ffffffffffffffffffffffffffffffffffffffff021916908373ffffffffffffffffffffffffffffffffffffffff16021790555034600254016002819055506001600860003373ffffffffffffffffffffffffffffffffffffffff1673ffffffffffffffffffffffffffffffffffffffff16815260200190815260200160002060006101000a81548160ff02191690831515021790555050565b600560019054906101000a900473ffffffffffffffffffffffffffffffffffffffff1681565b600560019054906101000a900473ffffffffffffffffffffffffffffffffffffffff1673ffffffffffffffffffffffffffffffffffffffff163373ffffffffffffffffffffffffffffffffffffffff16146104ac57600080fd5b60006004541480156104cb5750600560009054906101000a900460ff16155b80156104d8575042600654115b156104ea576104e561053c565b61053a565b7f814c05dfbe528b4c98c6f715e91f8d08e7f436692ea2ecb983f1ca89d5d6df2e6040518080602001828103825260368152602001806107bf6036913960400191505060405180910390a1600080fd5b565b600560009054906101000a900460ff16610559576105586105a5565b5b6001600560006101000a81548160ff0219169083151502179055506000600281905550600080819055506000600481905550600060018190555060006003819055506000600681905550565b600080546105b161072a565b816105b857fe5b06905060006007600083815260200190815260200160002060009054906101000a900473ffffffffffffffffffffffffffffffffffffffff169050817f581ef5953622b39eaa762cbef003165e55864c86cb3275c3b7ddeee3f738ee6182604051808273ffffffffffffffffffffffffffffffffffffffff168152602001806020018281038252601a8152602001807f546865204c6f74746572792057696e6e657220666f756e6421210000000000008152506020019250505060405180910390a23373ffffffffffffffffffffffffffffffffffffffff166108fc6064600f60025402816106a357fe5b049081150290604051600060405180830381858888f193505050501580156106cf573d6000803e3d6000fd5b508073ffffffffffffffffffffffffffffffffffffffff166108fc6064605560025402816106f957fe5b049081150290604051600060405180830381858888f19350505050158015610725573d6000803e3d6000fd5b505050565b6000444260405160200180838152602001828152602001925050506040516020818303038152906040528051906020012060001c90509056fe5469636b65742050726963652073686f756c6420657175616c20746f207468652053656e6465722076616c7565206f7220417661696c61626c65205469636b65742073686f756c64206e6f7420657175616c20746f207a65726f2e4c6f7474657279206973206e6f7420636f6d706c6574656420796574206f7220456e64204461746520697320636f6d706c657465642e50726576696f7573204c6f74746572792073686f756c6420636c6f7365206265666f7265207374617274206e6577204c6f74746572795469636b6574204e756d6265722073686f756c642067726561746572207468616e2031204f522050726963652073686f756c642067726561746572207468616e207a65726f2ea26469706673582212209b35a08b7716683ebb67cb041a11bc81915f49a92a178798ff412bf68959b14f64736f6c63430007000033",
  "immutableReferences": {},
  "source": "pragma solidity 0.7.0;\n\ncontract Lottery {\n  uint internal nTickets = 0;     // number of tickets\n  uint internal ticket_price = 0; // ticket pice\n  uint internal prize = 0;        // winner prize\n  uint internal counter = 0;      // current ticket\n  uint internal aTickets = 0;     // number of available tickets\n  bool internal finished = true;\n  address public owner;\n  uint endDate;\n  \n\n  mapping (uint => address) internal players;     // players map\n  mapping (address => bool) internal addresses;   // player address\n\n  // Event that is called when the winner is found.\n  event winner(uint indexed counter, address winner, string message);\n  \n  event drawException(string message);\n  constructor() {\n    owner = msg.sender;\n  }\n\n  modifier onlyOwner() {\n    require(msg.sender == owner);\n    _;\n  }\n  \n \n  function startLottery(uint tickets, uint price, uint uptoDate) public payable onlyOwner{\n      require(aTickets == 0 && nTickets == 0, \"Previous Lottery should close before start new Lottery\");\n    require (price > 0 && tickets > 1,\n    \"Ticket Number should greater than 1 OR Price should greater than zero.\");\n    nTickets = tickets;\n    ticket_price = price;\n    aTickets = nTickets;\n    prize = prize;\n    finished = false;\n    endDate = uptoDate;\n  }\n  \n  \n  // Function to buy a ticket\n  function buyTicket(uint ticket_price) public payable {\n      msg.value == ticket_price;\n      require (aTickets != 0 && msg.value == ticket_price && endDate > block.timestamp, \"Ticket Price should equal to the Sender value or Available Ticket should not equal to zero.\");\n    aTickets = aTickets - 1;\n    players[++counter] = msg.sender;\n    prize = prize + msg.value;\n    addresses[msg.sender] = true;\n  }\n  \n  \n  function drawWinner() public payable onlyOwner{\n       if (aTickets == 0 && !finished && endDate > block.timestamp) {\n      endLottery();\n    }else {\n        emit drawException(\"Lottery is not completed yet or End Date is completed.\");\n        revert();\n    }\n  }\n  \n  \n  // Return the current status\n  function status() public view returns(uint, uint, uint, uint, uint) {\n    return (nTickets, aTickets, ticket_price, prize, endDate);\n  }\n\n \n  // End the contract and to find a winner\n  function endLottery() internal {\n      if (!finished) {\n        getWinner();\n      }\n      finished = true;\n      prize = 0;\n      nTickets = 0;\n      aTickets = 0;\n      ticket_price = 0;\n      counter = 0;\n      endDate = 0;\n  }\n  \n  function random() private view returns (uint){\n      return uint(keccak256(abi.encodePacked(block.difficulty, block.timestamp)));\n  }\n\n  // Generate the winner and transfer the prize to his address\n  function getWinner() internal {\n    uint index = random() % nTickets;\n    address payable winnerAddr = address(uint160(players[index]));\n    emit winner(index, winnerAddr, \"The Lottery Winner found!!\");\n    msg.sender.transfer(prize * 15/100);\n    winnerAddr.transfer(prize * 85/100);\n  }\n}",
  "sourcePath": "C:/Users/muham/Downloads/LotteryF/contracts/Lottery.sol",
  "compiler": {
    "name": "solc",
    "version": "0.7.0+commit.9e61f92b.Emscripten.clang"
  },
  "schemaVersion": "3.3.2",
  "updatedAt": "2021-03-09T08:28:49.975Z",
  "networkType": "ethereum",
  "devdoc": {
    "kind": "dev",
    "methods": {},
    "version": 1
  },
  "userdoc": {
    "kind": "user",
    "methods": {},
    "version": 1
  }
}